{
  "_format": "hh-sol-artifact-1",
  "contractName": "TruSoil",
  "sourceName": "contracts/TruSoil.sol",
  "abi": [
    {
      "inputs": [],
      "stateMutability": "nonpayable",
      "type": "constructor"
    },
    {
      "anonymous": false,
      "inputs": [
        {
          "indexed": true,
          "internalType": "string",
          "name": "batchId",
          "type": "string"
        },
        {
          "indexed": false,
          "internalType": "bytes32",
          "name": "merkleRoot",
          "type": "bytes32"
        },
        {
          "indexed": false,
          "internalType": "uint256",
          "name": "complianceScore",
          "type": "uint256"
        },
        {
          "indexed": false,
          "internalType": "string",
          "name": "grade",
          "type": "string"
        },
        {
          "indexed": true,
          "internalType": "address",
          "name": "submittedBy",
          "type": "address"
        }
      ],
      "name": "BatchStored",
      "type": "event"
    },
    {
      "anonymous": false,
      "inputs": [
        {
          "indexed": true,
          "internalType": "address",
          "name": "previousOwner",
          "type": "address"
        },
        {
          "indexed": true,
          "internalType": "address",
          "name": "newOwner",
          "type": "address"
        }
      ],
      "name": "OwnershipTransferred",
      "type": "event"
    },
    {
      "inputs": [
        {
          "internalType": "string",
          "name": "batchId",
          "type": "string"
        }
      ],
      "name": "getBatch",
      "outputs": [
        {
          "internalType": "bytes32",
          "name": "merkleRoot",
          "type": "bytes32"
        },
        {
          "internalType": "uint256",
          "name": "complianceScore",
          "type": "uint256"
        },
        {
          "internalType": "string",
          "name": "grade",
          "type": "string"
        },
        {
          "internalType": "uint256",
          "name": "timestamp",
          "type": "uint256"
        },
        {
          "internalType": "address",
          "name": "submittedBy",
          "type": "address"
        }
      ],
      "stateMutability": "view",
      "type": "function"
    },
    {
      "inputs": [],
      "name": "owner",
      "outputs": [
        {
          "internalType": "address",
          "name": "",
          "type": "address"
        }
      ],
      "stateMutability": "view",
      "type": "function"
    },
    {
      "inputs": [
        {
          "internalType": "string",
          "name": "batchId",
          "type": "string"
        },
        {
          "internalType": "string",
          "name": "farmId",
          "type": "string"
        },
        {
          "internalType": "bytes32",
          "name": "merkleRoot",
          "type": "bytes32"
        },
        {
          "internalType": "uint256",
          "name": "complianceScore",
          "type": "uint256"
        },
        {
          "internalType": "string",
          "name": "grade",
          "type": "string"
        }
      ],
      "name": "storeBatch",
      "outputs": [],
      "stateMutability": "nonpayable",
      "type": "function"
    },
    {
      "inputs": [],
      "name": "totalBatches",
      "outputs": [
        {
          "internalType": "uint256",
          "name": "",
          "type": "uint256"
        }
      ],
      "stateMutability": "view",
      "type": "function"
    },
    {
      "inputs": [
        {
          "internalType": "address",
          "name": "newOwner",
          "type": "address"
        }
      ],
      "name": "transferOwnership",
      "outputs": [],
      "stateMutability": "nonpayable",
      "type": "function"
    },
    {
      "inputs": [
        {
          "internalType": "string",
          "name": "batchId",
          "type": "string"
        },
        {
          "internalType": "bytes32",
          "name": "claimedRoot",
          "type": "bytes32"
        }
      ],
      "name": "verifyBatch",
      "outputs": [
        {
          "internalType": "bool",
          "name": "",
          "type": "bool"
        }
      ],
      "stateMutability": "view",
      "type": "function"
    }
  ],
  "bytecode": "0x608060405234801561001057600080fd5b50600080546001600160a01b03191633179055610bbc806100326000396000f3fe608060405234801561001057600080fd5b50600436106100625760003560e01c80630c977dd31461006757806369ff6abb1461007c5780638da5cb5b14610092578063da55b704146100bd578063f2fde38b146100e0578063f9ca4274146100f3575b600080fd5b61007a610075366004610736565b610117565b005b6002546040519081526020015b60405180910390f35b6000546100a5906001600160a01b031681565b6040516001600160a01b039091168152602001610089565b6100d06100cb3660046107e3565b610417565b6040519015158152602001610089565b61007a6100ee36600461082f565b6104a1565b61010661010136600461085f565b6105a4565b6040516100899594939291906108a1565b6000546001600160a01b031633146101765760405162461bcd60e51b815260206004820181905260248201527f547275536f696c3a2063616c6c6572206973206e6f7420746865206f776e657260448201526064015b60405180910390fd5b866101bc5760405162461bcd60e51b8152602060048201526016602482015275151c9d54dbda5b0e88195b5c1d1e4818985d18da125960521b604482015260640161016d565b606483111561020d5760405162461bcd60e51b815260206004820152601a60248201527f547275536f696c3a2073636f7265206578636565647320313030000000000000604482015260640161016d565b6001888860405161021f929190610917565b9081526040519081900360200190206004015460ff600160a01b909104161561028a5760405162461bcd60e51b815260206004820152601d60248201527f547275536f696c3a20626174636820616c72656164792073746f726564000000604482015260640161016d565b6040518060c0016040528085815260200184815260200183838080601f016020809104026020016040519081016040528093929190818152602001838380828437600092019190915250505090825250426020820152336040808301919091526001606090920182905251610302908b908b90610917565b908152604080516020928190038301902083518155918301516001830155820151600282019061033290826109c8565b506060820151600382015560808201516004909101805460a0909301511515600160a01b026001600160a81b03199093166001600160a01b0390921691909117919091179055600280546001810182556000919091527f405787fa12a823e0f2b7631cc41b3ba8828b3321ca811111fa75cd3aa3bb5ace016103b5888a83610a88565b5060405133906103c8908a908a90610917565b60405180910390207fa42612766d460c11647f10384e107d7790df31af278bfbd4127a3448fb50c5f8868686866040516104059493929190610b49565b60405180910390a35050505050505050565b6000806001858560405161042c929190610917565b908152604051908190036020019020600481015490915060ff600160a01b909104166104955760405162461bcd60e51b8152602060048201526018602482015277151c9d54dbda5b0e8818985d18da081b9bdd08199bdd5b9960421b604482015260640161016d565b54821490509392505050565b6000546001600160a01b031633146104fb5760405162461bcd60e51b815260206004820181905260248201527f547275536f696c3a2063616c6c6572206973206e6f7420746865206f776e6572604482015260640161016d565b6001600160a01b0381166105495760405162461bcd60e51b8152602060048201526015602482015274547275536f696c3a207a65726f206164647265737360581b604482015260640161016d565b600080546040516001600160a01b03808516939216917f8be0079c531659141344cd1fd0a4f28419497f9722a3daafe3b4186f6b6457e091a3600080546001600160a01b0319166001600160a01b0392909216919091179055565b60008060606000806000600188886040516105c0929190610917565b908152604051908190036020019020600481015490915060ff600160a01b909104166106295760405162461bcd60e51b8152602060048201526018602482015277151c9d54dbda5b0e8818985d18da081b9bdd08199bdd5b9960421b604482015260640161016d565b80546001820154600383015460048401546002850180549092916001600160a01b03169083906106589061093d565b80601f01602080910402602001604051908101604052809291908181526020018280546106849061093d565b80156106d15780601f106106a6576101008083540402835291602001916106d1565b820191906000526020600020905b8154815290600101906020018083116106b457829003601f168201915b5050505050925095509550955095509550509295509295909350565b60008083601f8401126106ff57600080fd5b50813567ffffffffffffffff81111561071757600080fd5b60208301915083602082850101111561072f57600080fd5b9250929050565b60008060008060008060008060a0898b03121561075257600080fd5b883567ffffffffffffffff8082111561076a57600080fd5b6107768c838d016106ed565b909a50985060208b013591508082111561078f57600080fd5b61079b8c838d016106ed565b909850965060408b0135955060608b0135945060808b01359150808211156107c257600080fd5b506107cf8b828c016106ed565b999c989b5096995094979396929594505050565b6000806000604084860312156107f857600080fd5b833567ffffffffffffffff81111561080f57600080fd5b61081b868287016106ed565b909790965060209590950135949350505050565b60006020828403121561084157600080fd5b81356001600160a01b038116811461085857600080fd5b9392505050565b6000806020838503121561087257600080fd5b823567ffffffffffffffff81111561088957600080fd5b610895858286016106ed565b90969095509350505050565b8581526000602086602084015260a0604084015285518060a085015260005b818110156108dc5787810183015185820160c0015282016108c0565b50600060c082860181019190915260608501969096526001600160a01b039490941660808401525050601f909101601f191601019392505050565b8183823760009101908152919050565b634e487b7160e01b600052604160045260246000fd5b600181811c9082168061095157607f821691505b60208210810361097157634e487b7160e01b600052602260045260246000fd5b50919050565b601f8211156109c3576000816000526020600020601f850160051c810160208610156109a05750805b601f850160051c820191505b818110156109bf578281556001016109ac565b5050505b505050565b815167ffffffffffffffff8111156109e2576109e2610927565b6109f6816109f0845461093d565b84610977565b602080601f831160018114610a2b5760008415610a135750858301515b600019600386901b1c1916600185901b1785556109bf565b600085815260208120601f198616915b82811015610a5a57888601518255948401946001909101908401610a3b565b5085821015610a785787850151600019600388901b60f8161c191681555b5050505050600190811b01905550565b67ffffffffffffffff831115610aa057610aa0610927565b610ab483610aae835461093d565b83610977565b6000601f841160018114610ae85760008515610ad05750838201355b600019600387901b1c1916600186901b178355610b42565b600083815260209020601f19861690835b82811015610b195786850135825560209485019460019092019101610af9565b5086821015610b365760001960f88860031b161c19848701351681555b505060018560011b0183555b5050505050565b84815283602082015260606040820152816060820152818360808301376000818301608090810191909152601f909201601f19160101939250505056fea26469706673582212206f9ea6e974647b5261e29e799daabf61e1e3ac382362966636ed343c9eac1f6064736f6c63430008180033",
  "linkReferences": {},
  "deployedLinkReferences": {}
}