{
  "_format": "hh-sol-artifact-1",
  "contractName": "TruSoil",
  "sourceName": "contracts/TruSoil.sol",
  "abi": [
    {
      "inputs": [],
      "stateMutability": "nonpayable",
      "type": "constructor"
    },
    {
      "anonymous": false,
      "inputs": [
        {
          "indexed": true,
          "internalType": "string",
          "name": "monthKey",
          "type": "string"
        },
        {
          "indexed": false,
          "internalType": "bytes32",
          "name": "merkleRoot",
          "type": "bytes32"
        },
        {
          "indexed": false,
          "internalType": "uint16",
          "name": "year",
          "type": "uint16"
        },
        {
          "indexed": false,
          "internalType": "uint8",
          "name": "month",
          "type": "uint8"
        },
        {
          "indexed": false,
          "internalType": "uint16",
          "name": "farmCount",
          "type": "uint16"
        },
        {
          "indexed": false,
          "internalType": "uint8",
          "name": "dailyRootCount",
          "type": "uint8"
        },
        {
          "indexed": true,
          "internalType": "address",
          "name": "submittedBy",
          "type": "address"
        }
      ],
      "name": "MonthlyRootStored",
      "type": "event"
    },
    {
      "anonymous": false,
      "inputs": [
        {
          "indexed": true,
          "internalType": "address",
          "name": "previousOwner",
          "type": "address"
        },
        {
          "indexed": true,
          "internalType": "address",
          "name": "newOwner",
          "type": "address"
        }
      ],
      "name": "OwnershipTransferred",
      "type": "event"
    },
    {
      "inputs": [
        {
          "internalType": "string",
          "name": "monthKey",
          "type": "string"
        }
      ],
      "name": "getMonthlyRoot",
      "outputs": [
        {
          "internalType": "bytes32",
          "name": "merkleRoot",
          "type": "bytes32"
        },
        {
          "internalType": "uint16",
          "name": "year",
          "type": "uint16"
        },
        {
          "internalType": "uint8",
          "name": "month",
          "type": "uint8"
        },
        {
          "internalType": "uint16",
          "name": "farmCount",
          "type": "uint16"
        },
        {
          "internalType": "uint8",
          "name": "dailyRootCount",
          "type": "uint8"
        },
        {
          "internalType": "uint256",
          "name": "timestamp",
          "type": "uint256"
        },
        {
          "internalType": "address",
          "name": "submittedBy",
          "type": "address"
        }
      ],
      "stateMutability": "view",
      "type": "function"
    },
    {
      "inputs": [],
      "name": "owner",
      "outputs": [
        {
          "internalType": "address",
          "name": "",
          "type": "address"
        }
      ],
      "stateMutability": "view",
      "type": "function"
    },
    {
      "inputs": [
        {
          "internalType": "string",
          "name": "monthKey",
          "type": "string"
        },
        {
          "internalType": "bytes32",
          "name": "merkleRoot",
          "type": "bytes32"
        },
        {
          "internalType": "uint16",
          "name": "year",
          "type": "uint16"
        },
        {
          "internalType": "uint8",
          "name": "month",
          "type": "uint8"
        },
        {
          "internalType": "uint16",
          "name": "farmCount",
          "type": "uint16"
        },
        {
          "internalType": "uint8",
          "name": "dailyRootCount",
          "type": "uint8"
        }
      ],
      "name": "storeMonthlyRoot",
      "outputs": [],
      "stateMutability": "nonpayable",
      "type": "function"
    },
    {
      "inputs": [],
      "name": "totalMonths",
      "outputs": [
        {
          "internalType": "uint256",
          "name": "",
          "type": "uint256"
        }
      ],
      "stateMutability": "view",
      "type": "function"
    },
    {
      "inputs": [
        {
          "internalType": "address",
          "name": "newOwner",
          "type": "address"
        }
      ],
      "name": "transferOwnership",
      "outputs": [],
      "stateMutability": "nonpayable",
      "type": "function"
    },
    {
      "inputs": [
        {
          "internalType": "string",
          "name": "monthKey",
          "type": "string"
        },
        {
          "internalType": "bytes32",
          "name": "claimedRoot",
          "type": "bytes32"
        }
      ],
      "name": "verifyMonthlyRoot",
      "outputs": [
        {
          "internalType": "bool",
          "name": "",
          "type": "bool"
        }
      ],
      "stateMutability": "view",
      "type": "function"
    }
  ],
  "bytecode": "0x608060405234801561001057600080fd5b50600080546001600160a01b03191633179055610a86806100326000396000f3fe608060405234801561001057600080fd5b50600436106100625760003560e01c806312e943631461006757806333d832cd1461007c5780638da5cb5b146100a45780638f7e57c1146100cf578063c3cd31c71461012a578063f2fde38b1461013b575b600080fd5b61007a610075366004610791565b61014e565b005b61008f61008a366004610820565b6104b6565b60405190151581526020015b60405180910390f35b6000546100b7906001600160a01b031681565b6040516001600160a01b03909116815260200161009b565b6100e26100dd36600461086c565b610540565b6040805197885261ffff968716602089015260ff9586169088015294909216606086015291909116608084015260a08301526001600160a01b031660c082015260e00161009b565b60025460405190815260200161009b565b61007a6101493660046108ae565b61061d565b6000546001600160a01b031633146101ad5760405162461bcd60e51b815260206004820181905260248201527f547275536f696c3a2063616c6c6572206973206e6f7420746865206f776e657260448201526064015b60405180910390fd5b856101fa5760405162461bcd60e51b815260206004820152601760248201527f547275536f696c3a20656d707479206d6f6e74684b657900000000000000000060448201526064016101a4565b60018360ff16101580156102125750600c8360ff1611155b6102575760405162461bcd60e51b81526020600482015260166024820152750a8e4eaa6ded2d87440d2dcecc2d8d2c840dadedce8d60531b60448201526064016101a4565b600187876040516102699291906108de565b9081526040519081900360200190206002015460ff600160d01b90910416156102d45760405162461bcd60e51b815260206004820152601d60248201527f547275536f696c3a206d6f6e746820616c72656164792073746f72656400000060448201526064016101a4565b604051806101000160405280868152602001428152602001336001600160a01b031681526020018561ffff1681526020018460ff1681526020018361ffff1681526020018260ff168152602001600115158152506001888860405161033a9291906108de565b9081526040805160209281900383019020835181559183015160018084019190915590830151600292830180546060860151608087015160a088015160c089015160e0909901516001600160a01b039096166001600160b01b031990941693909317600160a01b61ffff938416021762ffffff60b01b1916600160b01b60ff9283160261ffff60b81b191617600160b81b92909316919091029190911761ffff60c81b1916600160c81b919096160260ff60d01b191694909417600160d01b9115159190910217909255805491820181556000527f405787fa12a823e0f2b7631cc41b3ba8828b3321ca811111fa75cd3aa3bb5ace0161043b87898361098f565b50604051339061044e90899089906108de565b6040805191829003822088835261ffff888116602085015260ff88811685850152908716606085015285166080840152905190917fb7cce65f646f06229f9d624845fd80cf825bb1c2ee02679cb2330767629bdb9c919081900360a00190a350505050505050565b600080600185856040516104cb9291906108de565b908152604051908190036020019020600281015490915060ff600160d01b909104166105345760405162461bcd60e51b8152602060048201526018602482015277151c9d54dbda5b0e881b5bdb9d1a081b9bdd08199bdd5b9960421b60448201526064016101a4565b54821490509392505050565b60008060008060008060008060018a8a60405161055e9291906108de565b908152604051908190036020019020600281015490915060ff600160d01b909104166105c75760405162461bcd60e51b8152602060048201526018602482015277151c9d54dbda5b0e881b5bdb9d1a081b9bdd08199bdd5b9960421b60448201526064016101a4565b80546002820154600190920154909b61ffff600160a01b840481169c5060ff600160b01b850481169c50600160b81b85049091169a50600160c81b84041698509096506001600160a01b03909116945092505050565b6000546001600160a01b031633146106775760405162461bcd60e51b815260206004820181905260248201527f547275536f696c3a2063616c6c6572206973206e6f7420746865206f776e657260448201526064016101a4565b6001600160a01b0381166106c55760405162461bcd60e51b8152602060048201526015602482015274547275536f696c3a207a65726f206164647265737360581b60448201526064016101a4565b600080546040516001600160a01b03808516939216917f8be0079c531659141344cd1fd0a4f28419497f9722a3daafe3b4186f6b6457e091a3600080546001600160a01b0319166001600160a01b0392909216919091179055565b60008083601f84011261073257600080fd5b50813567ffffffffffffffff81111561074a57600080fd5b60208301915083602082850101111561076257600080fd5b9250929050565b803561ffff8116811461077b57600080fd5b919050565b803560ff8116811461077b57600080fd5b600080600080600080600060c0888a0312156107ac57600080fd5b873567ffffffffffffffff8111156107c357600080fd5b6107cf8a828b01610720565b909850965050602088013594506107e860408901610769565b93506107f660608901610780565b925061080460808901610769565b915061081260a08901610780565b905092959891949750929550565b60008060006040848603121561083557600080fd5b833567ffffffffffffffff81111561084c57600080fd5b61085886828701610720565b909790965060209590950135949350505050565b6000806020838503121561087f57600080fd5b823567ffffffffffffffff81111561089657600080fd5b6108a285828601610720565b90969095509350505050565b6000602082840312156108c057600080fd5b81356001600160a01b03811681146108d757600080fd5b9392505050565b8183823760009101908152919050565b634e487b7160e01b600052604160045260246000fd5b600181811c9082168061091857607f821691505b60208210810361093857634e487b7160e01b600052602260045260246000fd5b50919050565b601f82111561098a576000816000526020600020601f850160051c810160208610156109675750805b601f850160051c820191505b8181101561098657828155600101610973565b5050505b505050565b67ffffffffffffffff8311156109a7576109a76108ee565b6109bb836109b58354610904565b8361093e565b6000601f8411600181146109ef57600085156109d75750838201355b600019600387901b1c1916600186901b178355610a49565b600083815260209020601f19861690835b82811015610a205786850135825560209485019460019092019101610a00565b5086821015610a3d5760001960f88860031b161c19848701351681555b505060018560011b0183555b505050505056fea264697066735822122006807df4643a3922108e6556e4550c8296994bbd44da842039e974c8c72781ce64736f6c63430008180033",
  "linkReferences": {},
  "deployedLinkReferences": {}
}