{"contracts/TruSoil.sol":{"TruSoil":{"abi":[{"inputs":[],"stateMutability":"nonpayable","type":"constructor"},{"anonymous":false,"inputs":[{"indexed":true,"internalType":"string","name":"monthKey","type":"string"},{"indexed":false,"internalType":"bytes32","name":"merkleRoot","type":"bytes32"},{"indexed":false,"internalType":"uint16","name":"year","type":"uint16"},{"indexed":false,"internalType":"uint8","name":"month","type":"uint8"},{"indexed":false,"internalType":"uint16","name":"farmCount","type":"uint16"},{"indexed":false,"internalType":"uint8","name":"dailyRootCount","type":"uint8"},{"indexed":true,"internalType":"address","name":"submittedBy","type":"address"}],"name":"MonthlyRootStored","type":"event"},{"anonymous":false,"inputs":[{"indexed":true,"internalType":"address","name":"previousOwner","type":"address"},{"indexed":true,"internalType":"address","name":"newOwner","type":"address"}],"name":"OwnershipTransferred","type":"event"},{"inputs":[{"internalType":"string","name":"monthKey","type":"string"}],"name":"getMonthlyRoot","outputs":[{"internalType":"bytes32","name":"merkleRoot","type":"bytes32"},{"internalType":"uint16","name":"year","type":"uint16"},{"internalType":"uint8","name":"month","type":"uint8"},{"internalType":"uint16","name":"farmCount","type":"uint16"},{"internalType":"uint8","name":"dailyRootCount","type":"uint8"},{"internalType":"uint256","name":"timestamp","type":"uint256"},{"internalType":"address","name":"submittedBy","type":"address"}],"stateMutability":"view","type":"function"},{"inputs":[],"name":"owner","outputs":[{"internalType":"address","name":"","type":"address"}],"stateMutability":"view","type":"function"},{"inputs":[{"internalType":"string","name":"monthKey","type":"string"},{"internalType":"bytes32","name":"merkleRoot","type":"bytes32"},{"internalType":"uint16","name":"year","type":"uint16"},{"internalType":"uint8","name":"month","type":"uint8"},{"internalType":"uint16","name":"farmCount","type":"uint16"},{"internalType":"uint8","name":"dailyRootCount","type":"uint8"}],"name":"storeMonthlyRoot","outputs":[],"stateMutability":"nonpayable","type":"function"},{"inputs":[],"name":"totalMonths","outputs":[{"internalType":"uint256","name":"","type":"uint256"}],"stateMutability":"view","type":"function"},{"inputs":[{"internalType":"address","name":"newOwner","type":"address"}],"name":"transferOwnership","outputs":[],"stateMutability":"nonpayable","type":"function"},{"inputs":[{"internalType":"string","name":"monthKey","type":"string"},{"internalType":"bytes32","name":"claimedRoot","type":"bytes32"}],"name":"verifyMonthlyRoot","outputs":[{"internalType":"bool","name":"","type":"bool"}],"stateMutability":"view","type":"function"}],"evm":{"bytecode":{"linkReferences":{},"object":"608060405234801561001057600080fd5b50600080546001600160a01b03191633179055610a86806100326000396000f3fe608060405234801561001057600080fd5b50600436106100625760003560e01c806312e943631461006757806333d832cd1461007c5780638da5cb5b146100a45780638f7e57c1146100cf578063c3cd31c71461012a578063f2fde38b1461013b575b600080fd5b61007a610075366004610791565b61014e565b005b61008f61008a366004610820565b6104b6565b60405190151581526020015b60405180910390f35b6000546100b7906001600160a01b031681565b6040516001600160a01b03909116815260200161009b565b6100e26100dd36600461086c565b610540565b6040805197885261ffff968716602089015260ff9586169088015294909216606086015291909116608084015260a08301526001600160a01b031660c082015260e00161009b565b60025460405190815260200161009b565b61007a6101493660046108ae565b61061d565b6000546001600160a01b031633146101ad5760405162461bcd60e51b815260206004820181905260248201527f547275536f696c3a2063616c6c6572206973206e6f7420746865206f776e657260448201526064015b60405180910390fd5b856101fa5760405162461bcd60e51b815260206004820152601760248201527f547275536f696c3a20656d707479206d6f6e74684b657900000000000000000060448201526064016101a4565b60018360ff16101580156102125750600c8360ff1611155b6102575760405162461bcd60e51b81526020600482015260166024820152750a8e4eaa6ded2d87440d2dcecc2d8d2c840dadedce8d60531b60448201526064016101a4565b600187876040516102699291906108de565b9081526040519081900360200190206002015460ff600160d01b90910416156102d45760405162461bcd60e51b815260206004820152601d60248201527f547275536f696c3a206d6f6e746820616c72656164792073746f72656400000060448201526064016101a4565b604051806101000160405280868152602001428152602001336001600160a01b031681526020018561ffff1681526020018460ff1681526020018361ffff1681526020018260ff168152602001600115158152506001888860405161033a9291906108de565b9081526040805160209281900383019020835181559183015160018084019190915590830151600292830180546060860151608087015160a088015160c089015160e0909901516001600160a01b039096166001600160b01b031990941693909317600160a01b61ffff938416021762ffffff60b01b1916600160b01b60ff9283160261ffff60b81b191617600160b81b92909316919091029190911761ffff60c81b1916600160c81b919096160260ff60d01b191694909417600160d01b9115159190910217909255805491820181556000527f405787fa12a823e0f2b7631cc41b3ba8828b3321ca811111fa75cd3aa3bb5ace0161043b87898361098f565b50604051339061044e90899089906108de565b6040805191829003822088835261ffff888116602085015260ff88811685850152908716606085015285166080840152905190917fb7cce65f646f06229f9d624845fd80cf825bb1c2ee02679cb2330767629bdb9c919081900360a00190a350505050505050565b600080600185856040516104cb9291906108de565b908152604051908190036020019020600281015490915060ff600160d01b909104166105345760405162461bcd60e51b8152602060048201526018602482015277151c9d54dbda5b0e881b5bdb9d1a081b9bdd08199bdd5b9960421b60448201526064016101a4565b54821490509392505050565b60008060008060008060008060018a8a60405161055e9291906108de565b908152604051908190036020019020600281015490915060ff600160d01b909104166105c75760405162461bcd60e51b8152602060048201526018602482015277151c9d54dbda5b0e881b5bdb9d1a081b9bdd08199bdd5b9960421b60448201526064016101a4565b80546002820154600190920154909b61ffff600160a01b840481169c5060ff600160b01b850481169c50600160b81b85049091169a50600160c81b84041698509096506001600160a01b03909116945092505050565b6000546001600160a01b031633146106775760405162461bcd60e51b815260206004820181905260248201527f547275536f696c3a2063616c6c6572206973206e6f7420746865206f776e657260448201526064016101a4565b6001600160a01b0381166106c55760405162461bcd60e51b8152602060048201526015602482015274547275536f696c3a207a65726f206164647265737360581b60448201526064016101a4565b600080546040516001600160a01b03808516939216917f8be0079c531659141344cd1fd0a4f28419497f9722a3daafe3b4186f6b6457e091a3600080546001600160a01b0319166001600160a01b0392909216919091179055565b60008083601f84011261073257600080fd5b50813567ffffffffffffffff81111561074a57600080fd5b60208301915083602082850101111561076257600080fd5b9250929050565b803561ffff8116811461077b57600080fd5b919050565b803560ff8116811461077b57600080fd5b600080600080600080600060c0888a0312156107ac57600080fd5b873567ffffffffffffffff8111156107c357600080fd5b6107cf8a828b01610720565b909850965050602088013594506107e860408901610769565b93506107f660608901610780565b925061080460808901610769565b915061081260a08901610780565b905092959891949750929550565b60008060006040848603121561083557600080fd5b833567ffffffffffffffff81111561084c57600080fd5b61085886828701610720565b909790965060209590950135949350505050565b6000806020838503121561087f57600080fd5b823567ffffffffffffffff81111561089657600080fd5b6108a285828601610720565b90969095509350505050565b6000602082840312156108c057600080fd5b81356001600160a01b03811681146108d757600080fd5b9392505050565b8183823760009101908152919050565b634e487b7160e01b600052604160045260246000fd5b600181811c9082168061091857607f821691505b60208210810361093857634e487b7160e01b600052602260045260246000fd5b50919050565b601f82111561098a576000816000526020600020601f850160051c810160208610156109675750805b601f850160051c820191505b8181101561098657828155600101610973565b5050505b505050565b67ffffffffffffffff8311156109a7576109a76108ee565b6109bb836109b58354610904565b8361093e565b6000601f8411600181146109ef57600085156109d75750838201355b600019600387901b1c1916600186901b178355610a49565b600083815260209020601f19861690835b82811015610a205786850135825560209485019460019092019101610a00565b5086821015610a3d5760001960f88860031b161c19848701351681555b505060018560011b0183555b505050505056fea264697066735822122006807df4643a3922108e6556e4550c8296994bbd44da842039e974c8c72781ce64736f6c63430008180033","opcodes":"PUSH1 0x80 PUSH1 0x40 MSTORE CALLVALUE DUP1 ISZERO PUSH2 0x10 JUMPI PUSH1 0x0 DUP1 REVERT JUMPDEST POP PUSH1 0x0 DUP1 SLOAD PUSH1 0x1 PUSH1 0x1 PUSH1 0xA0 SHL SUB NOT AND CALLER OR SWAP1 SSTORE PUSH2 0xA86 DUP1 PUSH2 0x32 PUSH1 0x0 CODECOPY PUSH1 0x0 RETURN INVALID PUSH1 0x80 PUSH1 0x40 MSTORE CALLVALUE DUP1 ISZERO PUSH2 0x10 JUMPI PUSH1 0x0 DUP1 REVERT JUMPDEST POP PUSH1 0x4 CALLDATASIZE LT PUSH2 0x62 JUMPI PUSH1 0x0 CALLDATALOAD PUSH1 0xE0 SHR DUP1 PUSH4 0x12E94363 EQ PUSH2 0x67 JUMPI DUP1 PUSH4 0x33D832CD EQ PUSH2 0x7C JUMPI DUP1 PUSH4 0x8DA5CB5B EQ PUSH2 0xA4 JUMPI DUP1 PUSH4 0x8F7E57C1 EQ PUSH2 0xCF JUMPI DUP1 PUSH4 0xC3CD31C7 EQ PUSH2 0x12A JUMPI DUP1 PUSH4 0xF2FDE38B EQ PUSH2 0x13B JUMPI JUMPDEST PUSH1 0x0 DUP1 REVERT JUMPDEST PUSH2 0x7A PUSH2 0x75 CALLDATASIZE PUSH1 0x4 PUSH2 0x791 JUMP JUMPDEST PUSH2 0x14E JUMP JUMPDEST STOP JUMPDEST PUSH2 0x8F PUSH2 0x8A CALLDATASIZE PUSH1 0x4 PUSH2 0x820 JUMP JUMPDEST PUSH2 0x4B6 JUMP JUMPDEST PUSH1 0x40 MLOAD SWAP1 ISZERO ISZERO DUP2 MSTORE PUSH1 0x20 ADD JUMPDEST PUSH1 0x40 MLOAD DUP1 SWAP2 SUB SWAP1 RETURN JUMPDEST PUSH1 0x0 SLOAD PUSH2 0xB7 SWAP1 PUSH1 0x1 PUSH1 0x1 PUSH1 0xA0 SHL SUB AND DUP2 JUMP JUMPDEST PUSH1 0x40 MLOAD PUSH1 0x1 PUSH1 0x1 PUSH1 0xA0 SHL SUB SWAP1 SWAP2 AND DUP2 MSTORE PUSH1 0x20 ADD PUSH2 0x9B JUMP JUMPDEST PUSH2 0xE2 PUSH2 0xDD CALLDATASIZE PUSH1 0x4 PUSH2 0x86C JUMP JUMPDEST PUSH2 0x540 JUMP JUMPDEST PUSH1 0x40 DUP1 MLOAD SWAP8 DUP9 MSTORE PUSH2 0xFFFF SWAP7 DUP8 AND PUSH1 0x20 DUP10 ADD MSTORE PUSH1 0xFF SWAP6 DUP7 AND SWAP1 DUP9 ADD MSTORE SWAP5 SWAP1 SWAP3 AND PUSH1 0x60 DUP7 ADD MSTORE SWAP2 SWAP1 SWAP2 AND PUSH1 0x80 DUP5 ADD MSTORE PUSH1 0xA0 DUP4 ADD MSTORE PUSH1 0x1 PUSH1 0x1 PUSH1 0xA0 SHL SUB AND PUSH1 0xC0 DUP3 ADD MSTORE PUSH1 0xE0 ADD PUSH2 0x9B JUMP JUMPDEST PUSH1 0x2 SLOAD PUSH1 0x40 MLOAD SWAP1 DUP2 MSTORE PUSH1 0x20 ADD PUSH2 0x9B JUMP JUMPDEST PUSH2 0x7A PUSH2 0x149 CALLDATASIZE PUSH1 0x4 PUSH2 0x8AE JUMP JUMPDEST PUSH2 0x61D JUMP JUMPDEST PUSH1 0x0 SLOAD PUSH1 0x1 PUSH1 0x1 PUSH1 0xA0 SHL SUB AND CALLER EQ PUSH2 0x1AD JUMPI PUSH1 0x40 MLOAD PUSH3 0x461BCD PUSH1 0xE5 SHL DUP2 MSTORE PUSH1 0x20 PUSH1 0x4 DUP3 ADD DUP2 SWAP1 MSTORE PUSH1 0x24 DUP3 ADD MSTORE PUSH32 0x547275536F696C3A2063616C6C6572206973206E6F7420746865206F776E6572 PUSH1 0x44 DUP3 ADD MSTORE PUSH1 0x64 ADD JUMPDEST PUSH1 0x40 MLOAD DUP1 SWAP2 SUB SWAP1 REVERT JUMPDEST DUP6 PUSH2 0x1FA JUMPI PUSH1 0x40 MLOAD PUSH3 0x461BCD PUSH1 0xE5 SHL DUP2 MSTORE PUSH1 0x20 PUSH1 0x4 DUP3 ADD MSTORE PUSH1 0x17 PUSH1 0x24 DUP3 ADD MSTORE PUSH32 0x547275536F696C3A20656D707479206D6F6E74684B6579000000000000000000 PUSH1 0x44 DUP3 ADD MSTORE PUSH1 0x64 ADD PUSH2 0x1A4 JUMP JUMPDEST PUSH1 0x1 DUP4 PUSH1 0xFF AND LT ISZERO DUP1 ISZERO PUSH2 0x212 JUMPI POP PUSH1 0xC DUP4 PUSH1 0xFF AND GT ISZERO JUMPDEST PUSH2 0x257 JUMPI PUSH1 0x40 MLOAD PUSH3 0x461BCD PUSH1 0xE5 SHL DUP2 MSTORE PUSH1 0x20 PUSH1 0x4 DUP3 ADD MSTORE PUSH1 0x16 PUSH1 0x24 DUP3 ADD MSTORE PUSH22 0xA8E4EAA6DED2D87440D2DCECC2D8D2C840DADEDCE8D PUSH1 0x53 SHL PUSH1 0x44 DUP3 ADD MSTORE PUSH1 0x64 ADD PUSH2 0x1A4 JUMP JUMPDEST PUSH1 0x1 DUP8 DUP8 PUSH1 0x40 MLOAD PUSH2 0x269 SWAP3 SWAP2 SWAP1 PUSH2 0x8DE JUMP JUMPDEST SWAP1 DUP2 MSTORE PUSH1 0x40 MLOAD SWAP1 DUP2 SWAP1 SUB PUSH1 0x20 ADD SWAP1 KECCAK256 PUSH1 0x2 ADD SLOAD PUSH1 0xFF PUSH1 0x1 PUSH1 0xD0 SHL SWAP1 SWAP2 DIV AND ISZERO PUSH2 0x2D4 JUMPI PUSH1 0x40 MLOAD PUSH3 0x461BCD PUSH1 0xE5 SHL DUP2 MSTORE PUSH1 0x20 PUSH1 0x4 DUP3 ADD MSTORE PUSH1 0x1D PUSH1 0x24 DUP3 ADD MSTORE PUSH32 0x547275536F696C3A206D6F6E746820616C72656164792073746F726564000000 PUSH1 0x44 DUP3 ADD MSTORE PUSH1 0x64 ADD PUSH2 0x1A4 JUMP JUMPDEST PUSH1 0x40 MLOAD DUP1 PUSH2 0x100 ADD PUSH1 0x40 MSTORE DUP1 DUP7 DUP2 MSTORE PUSH1 0x20 ADD TIMESTAMP DUP2 MSTORE PUSH1 0x20 ADD CALLER PUSH1 0x1 PUSH1 0x1 PUSH1 0xA0 SHL SUB AND DUP2 MSTORE PUSH1 0x20 ADD DUP6 PUSH2 0xFFFF AND DUP2 MSTORE PUSH1 0x20 ADD DUP5 PUSH1 0xFF AND DUP2 MSTORE PUSH1 0x20 ADD DUP4 PUSH2 0xFFFF AND DUP2 MSTORE PUSH1 0x20 ADD DUP3 PUSH1 0xFF AND DUP2 MSTORE PUSH1 0x20 ADD PUSH1 0x1 ISZERO ISZERO DUP2 MSTORE POP PUSH1 0x1 DUP9 DUP9 PUSH1 0x40 MLOAD PUSH2 0x33A SWAP3 SWAP2 SWAP1 PUSH2 0x8DE JUMP JUMPDEST SWAP1 DUP2 MSTORE PUSH1 0x40 DUP1 MLOAD PUSH1 0x20 SWAP3 DUP2 SWAP1 SUB DUP4 ADD SWAP1 KECCAK256 DUP4 MLOAD DUP2 SSTORE SWAP2 DUP4 ADD MLOAD PUSH1 0x1 DUP1 DUP5 ADD SWAP2 SWAP1 SWAP2 SSTORE SWAP1 DUP4 ADD MLOAD PUSH1 0x2 SWAP3 DUP4 ADD DUP1 SLOAD PUSH1 0x60 DUP7 ADD MLOAD PUSH1 0x80 DUP8 ADD MLOAD PUSH1 0xA0 DUP9 ADD MLOAD PUSH1 0xC0 DUP10 ADD MLOAD PUSH1 0xE0 SWAP1 SWAP10 ADD MLOAD PUSH1 0x1 PUSH1 0x1 PUSH1 0xA0 SHL SUB SWAP1 SWAP7 AND PUSH1 0x1 PUSH1 0x1 PUSH1 0xB0 SHL SUB NOT SWAP1 SWAP5 AND SWAP4 SWAP1 SWAP4 OR PUSH1 0x1 PUSH1 0xA0 SHL PUSH2 0xFFFF SWAP4 DUP5 AND MUL OR PUSH3 0xFFFFFF PUSH1 0xB0 SHL NOT AND PUSH1 0x1 PUSH1 0xB0 SHL PUSH1 0xFF SWAP3 DUP4 AND MUL PUSH2 0xFFFF PUSH1 0xB8 SHL NOT AND OR PUSH1 0x1 PUSH1 0xB8 SHL SWAP3 SWAP1 SWAP4 AND SWAP2 SWAP1 SWAP2 MUL SWAP2 SWAP1 SWAP2 OR PUSH2 0xFFFF PUSH1 0xC8 SHL NOT AND PUSH1 0x1 PUSH1 0xC8 SHL SWAP2 SWAP1 SWAP7 AND MUL PUSH1 0xFF PUSH1 0xD0 SHL NOT AND SWAP5 SWAP1 SWAP5 OR PUSH1 0x1 PUSH1 0xD0 SHL SWAP2 ISZERO ISZERO SWAP2 SWAP1 SWAP2 MUL OR SWAP1 SWAP3 SSTORE DUP1 SLOAD SWAP2 DUP3 ADD DUP2 SSTORE PUSH1 0x0 MSTORE PUSH32 0x405787FA12A823E0F2B7631CC41B3BA8828B3321CA811111FA75CD3AA3BB5ACE ADD PUSH2 0x43B DUP8 DUP10 DUP4 PUSH2 0x98F JUMP JUMPDEST POP PUSH1 0x40 MLOAD CALLER SWAP1 PUSH2 0x44E SWAP1 DUP10 SWAP1 DUP10 SWAP1 PUSH2 0x8DE JUMP JUMPDEST PUSH1 0x40 DUP1 MLOAD SWAP2 DUP3 SWAP1 SUB DUP3 KECCAK256 DUP9 DUP4 MSTORE PUSH2 0xFFFF DUP9 DUP2 AND PUSH1 0x20 DUP6 ADD MSTORE PUSH1 0xFF DUP9 DUP2 AND DUP6 DUP6 ADD MSTORE SWAP1 DUP8 AND PUSH1 0x60 DUP6 ADD MSTORE DUP6 AND PUSH1 0x80 DUP5 ADD MSTORE SWAP1 MLOAD SWAP1 SWAP2 PUSH32 0xB7CCE65F646F06229F9D624845FD80CF825BB1C2EE02679CB2330767629BDB9C SWAP2 SWAP1 DUP2 SWAP1 SUB PUSH1 0xA0 ADD SWAP1 LOG3 POP POP POP POP POP POP POP JUMP JUMPDEST PUSH1 0x0 DUP1 PUSH1 0x1 DUP6 DUP6 PUSH1 0x40 MLOAD PUSH2 0x4CB SWAP3 SWAP2 SWAP1 PUSH2 0x8DE JUMP JUMPDEST SWAP1 DUP2 MSTORE PUSH1 0x40 MLOAD SWAP1 DUP2 SWAP1 SUB PUSH1 0x20 ADD SWAP1 KECCAK256 PUSH1 0x2 DUP2 ADD SLOAD SWAP1 SWAP2 POP PUSH1 0xFF PUSH1 0x1 PUSH1 0xD0 SHL SWAP1 SWAP2 DIV AND PUSH2 0x534 JUMPI PUSH1 0x40 MLOAD PUSH3 0x461BCD PUSH1 0xE5 SHL DUP2 MSTORE PUSH1 0x20 PUSH1 0x4 DUP3 ADD MSTORE PUSH1 0x18 PUSH1 0x24 DUP3 ADD MSTORE PUSH24 0x151C9D54DBDA5B0E881B5BDB9D1A081B9BDD08199BDD5B99 PUSH1 0x42 SHL PUSH1 0x44 DUP3 ADD MSTORE PUSH1 0x64 ADD PUSH2 0x1A4 JUMP JUMPDEST SLOAD DUP3 EQ SWAP1 POP SWAP4 SWAP3 POP POP POP JUMP JUMPDEST PUSH1 0x0 DUP1 PUSH1 0x0 DUP1 PUSH1 0x0 DUP1 PUSH1 0x0 DUP1 PUSH1 0x1 DUP11 DUP11 PUSH1 0x40 MLOAD PUSH2 0x55E SWAP3 SWAP2 SWAP1 PUSH2 0x8DE JUMP JUMPDEST SWAP1 DUP2 MSTORE PUSH1 0x40 MLOAD SWAP1 DUP2 SWAP1 SUB PUSH1 0x20 ADD SWAP1 KECCAK256 PUSH1 0x2 DUP2 ADD SLOAD SWAP1 SWAP2 POP PUSH1 0xFF PUSH1 0x1 PUSH1 0xD0 SHL SWAP1 SWAP2 DIV AND PUSH2 0x5C7 JUMPI PUSH1 0x40 MLOAD PUSH3 0x461BCD PUSH1 0xE5 SHL DUP2 MSTORE PUSH1 0x20 PUSH1 0x4 DUP3 ADD MSTORE PUSH1 0x18 PUSH1 0x24 DUP3 ADD MSTORE PUSH24 0x151C9D54DBDA5B0E881B5BDB9D1A081B9BDD08199BDD5B99 PUSH1 0x42 SHL PUSH1 0x44 DUP3 ADD MSTORE PUSH1 0x64 ADD PUSH2 0x1A4 JUMP JUMPDEST DUP1 SLOAD PUSH1 0x2 DUP3 ADD SLOAD PUSH1 0x1 SWAP1 SWAP3 ADD SLOAD SWAP1 SWAP12 PUSH2 0xFFFF PUSH1 0x1 PUSH1 0xA0 SHL DUP5 DIV DUP2 AND SWAP13 POP PUSH1 0xFF PUSH1 0x1 PUSH1 0xB0 SHL DUP6 DIV DUP2 AND SWAP13 POP PUSH1 0x1 PUSH1 0xB8 SHL DUP6 DIV SWAP1 SWAP2 AND SWAP11 POP PUSH1 0x1 PUSH1 0xC8 SHL DUP5 DIV AND SWAP9 POP SWAP1 SWAP7 POP PUSH1 0x1 PUSH1 0x1 PUSH1 0xA0 SHL SUB SWAP1 SWAP2 AND SWAP5 POP SWAP3 POP POP POP JUMP JUMPDEST PUSH1 0x0 SLOAD PUSH1 0x1 PUSH1 0x1 PUSH1 0xA0 SHL SUB AND CALLER EQ PUSH2 0x677 JUMPI PUSH1 0x40 MLOAD PUSH3 0x461BCD PUSH1 0xE5 SHL DUP2 MSTORE PUSH1 0x20 PUSH1 0x4 DUP3 ADD DUP2 SWAP1 MSTORE PUSH1 0x24 DUP3 ADD MSTORE PUSH32 0x547275536F696C3A2063616C6C6572206973206E6F7420746865206F776E6572 PUSH1 0x44 DUP3 ADD MSTORE PUSH1 0x64 ADD PUSH2 0x1A4 JUMP JUMPDEST PUSH1 0x1 PUSH1 0x1 PUSH1 0xA0 SHL SUB DUP2 AND PUSH2 0x6C5 JUMPI PUSH1 0x40 MLOAD PUSH3 0x461BCD PUSH1 0xE5 SHL DUP2 MSTORE PUSH1 0x20 PUSH1 0x4 DUP3 ADD MSTORE PUSH1 0x15 PUSH1 0x24 DUP3 ADD MSTORE PUSH21 0x547275536F696C3A207A65726F2061646472657373 PUSH1 0x58 SHL PUSH1 0x44 DUP3 ADD MSTORE PUSH1 0x64 ADD PUSH2 0x1A4 JUMP JUMPDEST PUSH1 0x0 DUP1 SLOAD PUSH1 0x40 MLOAD PUSH1 0x1 PUSH1 0x1 PUSH1 0xA0 SHL SUB DUP1 DUP6 AND SWAP4 SWAP3 AND SWAP2 PUSH32 0x8BE0079C531659141344CD1FD0A4F28419497F9722A3DAAFE3B4186F6B6457E0 SWAP2 LOG3 PUSH1 0x0 DUP1 SLOAD PUSH1 0x1 PUSH1 0x1 PUSH1 0xA0 SHL SUB NOT AND PUSH1 0x1 PUSH1 0x1 PUSH1 0xA0 SHL SUB SWAP3 SWAP1 SWAP3 AND SWAP2 SWAP1 SWAP2 OR SWAP1 SSTORE JUMP JUMPDEST PUSH1 0x0 DUP1 DUP4 PUSH1 0x1F DUP5 ADD SLT PUSH2 0x732 JUMPI PUSH1 0x0 DUP1 REVERT JUMPDEST POP DUP2 CALLDATALOAD PUSH8 0xFFFFFFFFFFFFFFFF DUP2 GT ISZERO PUSH2 0x74A JUMPI PUSH1 0x0 DUP1 REVERT JUMPDEST PUSH1 0x20 DUP4 ADD SWAP2 POP DUP4 PUSH1 0x20 DUP3 DUP6 ADD ADD GT ISZERO PUSH2 0x762 JUMPI PUSH1 0x0 DUP1 REVERT JUMPDEST SWAP3 POP SWAP3 SWAP1 POP JUMP JUMPDEST DUP1 CALLDATALOAD PUSH2 0xFFFF DUP2 AND DUP2 EQ PUSH2 0x77B JUMPI PUSH1 0x0 DUP1 REVERT JUMPDEST SWAP2 SWAP1 POP JUMP JUMPDEST DUP1 CALLDATALOAD PUSH1 0xFF DUP2 AND DUP2 EQ PUSH2 0x77B JUMPI PUSH1 0x0 DUP1 REVERT JUMPDEST PUSH1 0x0 DUP1 PUSH1 0x0 DUP1 PUSH1 0x0 DUP1 PUSH1 0x0 PUSH1 0xC0 DUP9 DUP11 SUB SLT ISZERO PUSH2 0x7AC JUMPI PUSH1 0x0 DUP1 REVERT JUMPDEST DUP8 CALLDATALOAD PUSH8 0xFFFFFFFFFFFFFFFF DUP2 GT ISZERO PUSH2 0x7C3 JUMPI PUSH1 0x0 DUP1 REVERT JUMPDEST PUSH2 0x7CF DUP11 DUP3 DUP12 ADD PUSH2 0x720 JUMP JUMPDEST SWAP1 SWAP9 POP SWAP7 POP POP PUSH1 0x20 DUP9 ADD CALLDATALOAD SWAP5 POP PUSH2 0x7E8 PUSH1 0x40 DUP10 ADD PUSH2 0x769 JUMP JUMPDEST SWAP4 POP PUSH2 0x7F6 PUSH1 0x60 DUP10 ADD PUSH2 0x780 JUMP JUMPDEST SWAP3 POP PUSH2 0x804 PUSH1 0x80 DUP10 ADD PUSH2 0x769 JUMP JUMPDEST SWAP2 POP PUSH2 0x812 PUSH1 0xA0 DUP10 ADD PUSH2 0x780 JUMP JUMPDEST SWAP1 POP SWAP3 SWAP6 SWAP9 SWAP2 SWAP5 SWAP8 POP SWAP3 SWAP6 POP JUMP JUMPDEST PUSH1 0x0 DUP1 PUSH1 0x0 PUSH1 0x40 DUP5 DUP7 SUB SLT ISZERO PUSH2 0x835 JUMPI PUSH1 0x0 DUP1 REVERT JUMPDEST DUP4 CALLDATALOAD PUSH8 0xFFFFFFFFFFFFFFFF DUP2 GT ISZERO PUSH2 0x84C JUMPI PUSH1 0x0 DUP1 REVERT JUMPDEST PUSH2 0x858 DUP7 DUP3 DUP8 ADD PUSH2 0x720 JUMP JUMPDEST SWAP1 SWAP8 SWAP1 SWAP7 POP PUSH1 0x20 SWAP6 SWAP1 SWAP6 ADD CALLDATALOAD SWAP5 SWAP4 POP POP POP POP JUMP JUMPDEST PUSH1 0x0 DUP1 PUSH1 0x20 DUP4 DUP6 SUB SLT ISZERO PUSH2 0x87F JUMPI PUSH1 0x0 DUP1 REVERT JUMPDEST DUP3 CALLDATALOAD PUSH8 0xFFFFFFFFFFFFFFFF DUP2 GT ISZERO PUSH2 0x896 JUMPI PUSH1 0x0 DUP1 REVERT JUMPDEST PUSH2 0x8A2 DUP6 DUP3 DUP7 ADD PUSH2 0x720 JUMP JUMPDEST SWAP1 SWAP7 SWAP1 SWAP6 POP SWAP4 POP POP POP POP JUMP JUMPDEST PUSH1 0x0 PUSH1 0x20 DUP3 DUP5 SUB SLT ISZERO PUSH2 0x8C0 JUMPI PUSH1 0x0 DUP1 REVERT JUMPDEST DUP2 CALLDATALOAD PUSH1 0x1 PUSH1 0x1 PUSH1 0xA0 SHL SUB DUP2 AND DUP2 EQ PUSH2 0x8D7 JUMPI PUSH1 0x0 DUP1 REVERT JUMPDEST SWAP4 SWAP3 POP POP POP JUMP JUMPDEST DUP2 DUP4 DUP3 CALLDATACOPY PUSH1 0x0 SWAP2 ADD SWAP1 DUP2 MSTORE SWAP2 SWAP1 POP JUMP JUMPDEST PUSH4 0x4E487B71 PUSH1 0xE0 SHL PUSH1 0x0 MSTORE PUSH1 0x41 PUSH1 0x4 MSTORE PUSH1 0x24 PUSH1 0x0 REVERT JUMPDEST PUSH1 0x1 DUP2 DUP2 SHR SWAP1 DUP3 AND DUP1 PUSH2 0x918 JUMPI PUSH1 0x7F DUP3 AND SWAP2 POP JUMPDEST PUSH1 0x20 DUP3 LT DUP2 SUB PUSH2 0x938 JUMPI PUSH4 0x4E487B71 PUSH1 0xE0 SHL PUSH1 0x0 MSTORE PUSH1 0x22 PUSH1 0x4 MSTORE PUSH1 0x24 PUSH1 0x0 REVERT JUMPDEST POP SWAP2 SWAP1 POP JUMP JUMPDEST PUSH1 0x1F DUP3 GT ISZERO PUSH2 0x98A JUMPI PUSH1 0x0 DUP2 PUSH1 0x0 MSTORE PUSH1 0x20 PUSH1 0x0 KECCAK256 PUSH1 0x1F DUP6 ADD PUSH1 0x5 SHR DUP2 ADD PUSH1 0x20 DUP7 LT ISZERO PUSH2 0x967 JUMPI POP DUP1 JUMPDEST PUSH1 0x1F DUP6 ADD PUSH1 0x5 SHR DUP3 ADD SWAP2 POP JUMPDEST DUP2 DUP2 LT ISZERO PUSH2 0x986 JUMPI DUP3 DUP2 SSTORE PUSH1 0x1 ADD PUSH2 0x973 JUMP JUMPDEST POP POP POP JUMPDEST POP POP POP JUMP JUMPDEST PUSH8 0xFFFFFFFFFFFFFFFF DUP4 GT ISZERO PUSH2 0x9A7 JUMPI PUSH2 0x9A7 PUSH2 0x8EE JUMP JUMPDEST PUSH2 0x9BB DUP4 PUSH2 0x9B5 DUP4 SLOAD PUSH2 0x904 JUMP JUMPDEST DUP4 PUSH2 0x93E JUMP JUMPDEST PUSH1 0x0 PUSH1 0x1F DUP5 GT PUSH1 0x1 DUP2 EQ PUSH2 0x9EF JUMPI PUSH1 0x0 DUP6 ISZERO PUSH2 0x9D7 JUMPI POP DUP4 DUP3 ADD CALLDATALOAD JUMPDEST PUSH1 0x0 NOT PUSH1 0x3 DUP8 SWAP1 SHL SHR NOT AND PUSH1 0x1 DUP7 SWAP1 SHL OR DUP4 SSTORE PUSH2 0xA49 JUMP JUMPDEST PUSH1 0x0 DUP4 DUP2 MSTORE PUSH1 0x20 SWAP1 KECCAK256 PUSH1 0x1F NOT DUP7 AND SWAP1 DUP4 JUMPDEST DUP3 DUP2 LT ISZERO PUSH2 0xA20 JUMPI DUP7 DUP6 ADD CALLDATALOAD DUP3 SSTORE PUSH1 0x20 SWAP5 DUP6 ADD SWAP5 PUSH1 0x1 SWAP1 SWAP3 ADD SWAP2 ADD PUSH2 0xA00 JUMP JUMPDEST POP DUP7 DUP3 LT ISZERO PUSH2 0xA3D JUMPI PUSH1 0x0 NOT PUSH1 0xF8 DUP9 PUSH1 0x3 SHL AND SHR NOT DUP5 DUP8 ADD CALLDATALOAD AND DUP2 SSTORE JUMPDEST POP POP PUSH1 0x1 DUP6 PUSH1 0x1 SHL ADD DUP4 SSTORE JUMPDEST POP POP POP POP POP JUMP INVALID LOG2 PUSH5 0x6970667358 0x22 SLT KECCAK256 MOD DUP1 PUSH30 0xF4643A3922108E6556E4550C8296994BBD44DA842039E974C8C72781CE64 PUSH20 0x6F6C634300081800330000000000000000000000 "},"methodIdentifiers":{"getMonthlyRoot(string)":"8f7e57c1","owner()":"8da5cb5b","storeMonthlyRoot(string,bytes32,uint16,uint8,uint16,uint8)":"12e94363","totalMonths()":"c3cd31c7","transferOwnership(address)":"f2fde38b","verifyMonthlyRoot(string,bytes32)":"33d832cd"}}}}}